{
  "_format": "hh-sol-artifact-1",
  "contractName": "MyNFT",
  "sourceName": "contracts/MyNFT.sol",
  "abi": [
    {
      "inputs": [
        {
          "internalType": "string",
          "name": "_baseUri",
          "type": "string"
        },
        {
          "internalType": "uint256",
          "name": "_maxSupply",
          "type": "uint256"
        }
      ],
      "stateMutability": "nonpayable",
      "type": "constructor"
    },
    {
      "anonymous": false,
      "inputs": [
        {
          "indexed": true,
          "internalType": "address",
          "name": "owner",
          "type": "address"
        },
        {
          "indexed": true,
          "internalType": "address",
          "name": "approved",
          "type": "address"
        },
        {
          "indexed": true,
          "internalType": "uint256",
          "name": "tokenId",
          "type": "uint256"
        }
      ],
      "name": "Approval",
      "type": "event"
    },
    {
      "anonymous": false,
      "inputs": [
        {
          "indexed": true,
          "internalType": "address",
          "name": "owner",
          "type": "address"
        },
        {
          "indexed": true,
          "internalType": "address",
          "name": "operator",
          "type": "address"
        },
        {
          "indexed": false,
          "internalType": "bool",
          "name": "approved",
          "type": "bool"
        }
      ],
      "name": "ApprovalForAll",
      "type": "event"
    },
    {
      "anonymous": false,
      "inputs": [
        {
          "indexed": false,
          "internalType": "uint256",
          "name": "_fromTokenId",
          "type": "uint256"
        },
        {
          "indexed": false,
          "internalType": "uint256",
          "name": "_toTokenId",
          "type": "uint256"
        }
      ],
      "name": "BatchMetadataUpdate",
      "type": "event"
    },
    {
      "anonymous": false,
      "inputs": [
        {
          "indexed": false,
          "internalType": "uint256",
          "name": "_tokenId",
          "type": "uint256"
        }
      ],
      "name": "MetadataUpdate",
      "type": "event"
    },
    {
      "anonymous": false,
      "inputs": [
        {
          "indexed": true,
          "internalType": "address",
          "name": "previousOwner",
          "type": "address"
        },
        {
          "indexed": true,
          "internalType": "address",
          "name": "newOwner",
          "type": "address"
        }
      ],
      "name": "OwnershipTransferred",
      "type": "event"
    },
    {
      "anonymous": false,
      "inputs": [
        {
          "indexed": false,
          "internalType": "address",
          "name": "account",
          "type": "address"
        }
      ],
      "name": "Paused",
      "type": "event"
    },
    {
      "anonymous": false,
      "inputs": [
        {
          "indexed": true,
          "internalType": "address",
          "name": "from",
          "type": "address"
        },
        {
          "indexed": true,
          "internalType": "address",
          "name": "to",
          "type": "address"
        },
        {
          "indexed": true,
          "internalType": "uint256",
          "name": "tokenId",
          "type": "uint256"
        }
      ],
      "name": "Transfer",
      "type": "event"
    },
    {
      "anonymous": false,
      "inputs": [
        {
          "indexed": false,
          "internalType": "address",
          "name": "account",
          "type": "address"
        }
      ],
      "name": "Unpaused",
      "type": "event"
    },
    {
      "inputs": [
        {
          "internalType": "address",
          "name": "to",
          "type": "address"
        },
        {
          "internalType": "uint256",
          "name": "tokenId",
          "type": "uint256"
        }
      ],
      "name": "approve",
      "outputs": [],
      "stateMutability": "nonpayable",
      "type": "function"
    },
    {
      "inputs": [
        {
          "internalType": "address",
          "name": "owner",
          "type": "address"
        }
      ],
      "name": "balanceOf",
      "outputs": [
        {
          "internalType": "uint256",
          "name": "",
          "type": "uint256"
        }
      ],
      "stateMutability": "view",
      "type": "function"
    },
    {
      "inputs": [],
      "name": "baseURI",
      "outputs": [
        {
          "internalType": "string",
          "name": "",
          "type": "string"
        }
      ],
      "stateMutability": "view",
      "type": "function"
    },
    {
      "inputs": [
        {
          "internalType": "uint256",
          "name": "tokenId",
          "type": "uint256"
        }
      ],
      "name": "getApproved",
      "outputs": [
        {
          "internalType": "address",
          "name": "",
          "type": "address"
        }
      ],
      "stateMutability": "view",
      "type": "function"
    },
    {
      "inputs": [
        {
          "internalType": "address",
          "name": "owner",
          "type": "address"
        },
        {
          "internalType": "address",
          "name": "operator",
          "type": "address"
        }
      ],
      "name": "isApprovedForAll",
      "outputs": [
        {
          "internalType": "bool",
          "name": "",
          "type": "bool"
        }
      ],
      "stateMutability": "view",
      "type": "function"
    },
    {
      "inputs": [
        {
          "internalType": "uint256",
          "name": "tokenId",
          "type": "uint256"
        }
      ],
      "name": "lockToken",
      "outputs": [],
      "stateMutability": "nonpayable",
      "type": "function"
    },
    {
      "inputs": [
        {
          "internalType": "uint256",
          "name": "",
          "type": "uint256"
        }
      ],
      "name": "lockedTokens",
      "outputs": [
        {
          "internalType": "bool",
          "name": "",
          "type": "bool"
        }
      ],
      "stateMutability": "view",
      "type": "function"
    },
    {
      "inputs": [],
      "name": "maxSupply",
      "outputs": [
        {
          "internalType": "uint256",
          "name": "",
          "type": "uint256"
        }
      ],
      "stateMutability": "view",
      "type": "function"
    },
    {
      "inputs": [],
      "name": "mint",
      "outputs": [],
      "stateMutability": "nonpayable",
      "type": "function"
    },
    {
      "inputs": [],
      "name": "mintWithPayment",
      "outputs": [],
      "stateMutability": "payable",
      "type": "function"
    },
    {
      "inputs": [],
      "name": "name",
      "outputs": [
        {
          "internalType": "string",
          "name": "",
          "type": "string"
        }
      ],
      "stateMutability": "view",
      "type": "function"
    },
    {
      "inputs": [],
      "name": "nftPrice",
      "outputs": [
        {
          "internalType": "uint256",
          "name": "",
          "type": "uint256"
        }
      ],
      "stateMutability": "view",
      "type": "function"
    },
    {
      "inputs": [],
      "name": "owner",
      "outputs": [
        {
          "internalType": "address",
          "name": "",
          "type": "address"
        }
      ],
      "stateMutability": "view",
      "type": "function"
    },
    {
      "inputs": [
        {
          "internalType": "uint256",
          "name": "tokenId",
          "type": "uint256"
        }
      ],
      "name": "ownerOf",
      "outputs": [
        {
          "internalType": "address",
          "name": "",
          "type": "address"
        }
      ],
      "stateMutability": "view",
      "type": "function"
    },
    {
      "inputs": [],
      "name": "pause",
      "outputs": [],
      "stateMutability": "nonpayable",
      "type": "function"
    },
    {
      "inputs": [],
      "name": "paused",
      "outputs": [
        {
          "internalType": "bool",
          "name": "",
          "type": "bool"
        }
      ],
      "stateMutability": "view",
      "type": "function"
    },
    {
      "inputs": [],
      "name": "renounceOwnership",
      "outputs": [],
      "stateMutability": "nonpayable",
      "type": "function"
    },
    {
      "inputs": [
        {
          "internalType": "address",
          "name": "from",
          "type": "address"
        },
        {
          "internalType": "address",
          "name": "to",
          "type": "address"
        },
        {
          "internalType": "uint256",
          "name": "tokenId",
          "type": "uint256"
        }
      ],
      "name": "safeTransferFrom",
      "outputs": [],
      "stateMutability": "nonpayable",
      "type": "function"
    },
    {
      "inputs": [
        {
          "internalType": "address",
          "name": "from",
          "type": "address"
        },
        {
          "internalType": "address",
          "name": "to",
          "type": "address"
        },
        {
          "internalType": "uint256",
          "name": "tokenId",
          "type": "uint256"
        },
        {
          "internalType": "bytes",
          "name": "data",
          "type": "bytes"
        }
      ],
      "name": "safeTransferFrom",
      "outputs": [],
      "stateMutability": "nonpayable",
      "type": "function"
    },
    {
      "inputs": [
        {
          "internalType": "address",
          "name": "operator",
          "type": "address"
        },
        {
          "internalType": "bool",
          "name": "approved",
          "type": "bool"
        }
      ],
      "name": "setApprovalForAll",
      "outputs": [],
      "stateMutability": "nonpayable",
      "type": "function"
    },
    {
      "inputs": [
        {
          "internalType": "bytes4",
          "name": "interfaceId",
          "type": "bytes4"
        }
      ],
      "name": "supportsInterface",
      "outputs": [
        {
          "internalType": "bool",
          "name": "",
          "type": "bool"
        }
      ],
      "stateMutability": "view",
      "type": "function"
    },
    {
      "inputs": [],
      "name": "symbol",
      "outputs": [
        {
          "internalType": "string",
          "name": "",
          "type": "string"
        }
      ],
      "stateMutability": "view",
      "type": "function"
    },
    {
      "inputs": [
        {
          "internalType": "uint256",
          "name": "tokenId",
          "type": "uint256"
        }
      ],
      "name": "tokenURI",
      "outputs": [
        {
          "internalType": "string",
          "name": "",
          "type": "string"
        }
      ],
      "stateMutability": "view",
      "type": "function"
    },
    {
      "inputs": [
        {
          "internalType": "address",
          "name": "from",
          "type": "address"
        },
        {
          "internalType": "address",
          "name": "to",
          "type": "address"
        },
        {
          "internalType": "uint256",
          "name": "tokenId",
          "type": "uint256"
        }
      ],
      "name": "transferFrom",
      "outputs": [],
      "stateMutability": "nonpayable",
      "type": "function"
    },
    {
      "inputs": [
        {
          "internalType": "address",
          "name": "newOwner",
          "type": "address"
        }
      ],
      "name": "transferOwnership",
      "outputs": [],
      "stateMutability": "nonpayable",
      "type": "function"
    },
    {
      "inputs": [
        {
          "internalType": "uint256",
          "name": "tokenId",
          "type": "uint256"
        }
      ],
      "name": "unlockToken",
      "outputs": [],
      "stateMutability": "nonpayable",
      "type": "function"
    },
    {
      "inputs": [],
      "name": "unpause",
      "outputs": [],
      "stateMutability": "nonpayable",
      "type": "function"
    }
  ],
  "bytecode": "0x6080604052662386f26fc10000600b5534801561001b57600080fd5b506040516124b53803806124b583398101604081905261003a9161012d565b60405180604001604052806005815260200164135e53919560da1b815250604051806040016040528060048152602001631353919560e21b81525081600090816100849190610286565b5060016100918282610286565b50506007805460ff19169055506100a7336100bd565b60096100b38382610286565b5060085550610344565b600780546001600160a01b03838116610100818102610100600160a81b031985161790945560405193909204169182907f8be0079c531659141344cd1fd0a4f28419497f9722a3daafe3b4186f6b6457e090600090a35050565b634e487b7160e01b600052604160045260246000fd5b6000806040838503121561014057600080fd5b82516001600160401b0381111561015657600080fd5b8301601f8101851361016757600080fd5b80516001600160401b0381111561018057610180610117565b604051601f8201601f19908116603f011681016001600160401b03811182821017156101ae576101ae610117565b6040528181528282016020018710156101c657600080fd5b60005b828110156101e5576020818501810151838301820152016101c9565b50600060209282018301529401519395939450505050565b600181811c9082168061021157607f821691505b60208210810361023157634e487b7160e01b600052602260045260246000fd5b50919050565b601f82111561028157806000526020600020601f840160051c8101602085101561025e5750805b601f840160051c820191505b8181101561027e576000815560010161026a565b50505b505050565b81516001600160401b0381111561029f5761029f610117565b6102b3816102ad84546101fd565b84610237565b6020601f8211600181146102e757600083156102cf5750848201515b600019600385901b1c1916600184901b17845561027e565b600084815260208120601f198516915b8281101561031757878501518255602094850194600190920191016102f7565b50848210156103355786840151600019600387901b60f8161c191681555b50505050600190811b01905550565b612162806103536000396000f3fe60806040526004361061019c5760003560e01c806370a08231116100ec578063b88d4fde1161008a578063dcec329411610064578063dcec32941461044d578063dd2e0ac01461047d578063e985e9c51461049d578063f2fde38b146104bd57600080fd5b8063b88d4fde146103f7578063c87b56dd14610417578063d5abeb011461043757600080fd5b80638456cb59116100c65780638456cb591461038a5780638da5cb5b1461039f57806395d89b41146103c2578063a22cb465146103d757600080fd5b806370a0823114610335578063715018a61461035557806380f203631461036a57600080fd5b806323b872dd1161015957806346d270ea1161013357806346d270ea146102e05780635c975abb146102e85780636352211e146103005780636c0360eb1461032057600080fd5b806323b872dd1461028b5780633f4ba83a146102ab57806342842e0e146102c057600080fd5b806301ffc9a7146101a157806306fdde03146101d6578063081812fc146101f8578063095ea7b3146102305780630d39fc81146102525780631249c58b14610276575b600080fd5b3480156101ad57600080fd5b506101c16101bc366004611ab2565b6104dd565b60405190151581526020015b60405180910390f35b3480156101e257600080fd5b506101eb6104ee565b6040516101cd9190611b1f565b34801561020457600080fd5b50610218610213366004611b32565b610580565b6040516001600160a01b0390911681526020016101cd565b34801561023c57600080fd5b5061025061024b366004611b67565b6105a7565b005b34801561025e57600080fd5b50610268600b5481565b6040519081526020016101cd565b34801561028257600080fd5b506102506106c1565b34801561029757600080fd5b506102506102a6366004611b91565b61077b565b3480156102b757600080fd5b506102506107df565b3480156102cc57600080fd5b506102506102db366004611b91565b6107f1565b61025061080c565b3480156102f457600080fd5b5060075460ff166101c1565b34801561030c57600080fd5b5061021861031b366004611b32565b6108d6565b34801561032c57600080fd5b506101eb610936565b34801561034157600080fd5b50610268610350366004611bce565b6109c4565b34801561036157600080fd5b50610250610a4a565b34801561037657600080fd5b50610250610385366004611b32565b610a5c565b34801561039657600080fd5b50610250610aeb565b3480156103ab57600080fd5b5060075461010090046001600160a01b0316610218565b3480156103ce57600080fd5b506101eb610afb565b3480156103e357600080fd5b506102506103f2366004611be9565b610b0a565b34801561040357600080fd5b50610250610412366004611c3b565b610b15565b34801561042357600080fd5b506101eb610432366004611b32565b610b80565b34801561044357600080fd5b5061026860085481565b34801561045957600080fd5b506101c1610468366004611b32565b600a6020526000908152604090205460ff1681565b34801561048957600080fd5b50610250610498366004611b32565b610b8b565b3480156104a957600080fd5b506101c16104b8366004611d1f565b610c17565b3480156104c957600080fd5b506102506104d8366004611bce565b610c45565b60006104e882610cbb565b92915050565b6060600080546104fd90611d52565b80601f016020809104026020016040519081016040528092919081815260200182805461052990611d52565b80156105765780601f1061054b57610100808354040283529160200191610576565b820191906000526020600020905b81548152906001019060200180831161055957829003601f168201915b5050505050905090565b600061058b82610ce0565b506000908152600460205260409020546001600160a01b031690565b60006105b2826108d6565b9050806001600160a01b0316836001600160a01b0316036106245760405162461bcd60e51b815260206004820152602160248201527f4552433732313a20617070726f76616c20746f2063757272656e74206f776e656044820152603960f91b60648201526084015b60405180910390fd5b336001600160a01b038216148061064057506106408133610c17565b6106b25760405162461bcd60e51b815260206004820152603d60248201527f4552433732313a20617070726f76652063616c6c6572206973206e6f7420746f60448201527f6b656e206f776e6572206f7220617070726f76656420666f7220616c6c000000606482015260840161061b565b6106bc8383610d3f565b505050565b6106c9610dad565b6106d1610e0d565b600854600c54106107195760405162461bcd60e51b815260206004820152601260248201527113585e081cdd5c1c1b1e481c995858da195960721b604482015260640161061b565b610727600c80546001019055565b6000610732600c5490565b905061073e3382610e53565b6000600961074b83610e6d565b60405160200161075c929190611d8c565b60405160208183030381529060405290506107778282610f7b565b5050565b610783610e0d565b6000818152600a602052604090205460ff16156107d45760405162461bcd60e51b815260206004820152600f60248201526e151bdad95b881a5cc81b1bd8dad959608a1b604482015260640161061b565b6106bc838383611046565b6107e7610dad565b6107ef611077565b565b6106bc83838360405180602001604052806000815250610b15565b610814610e0d565b600b543410156108665760405162461bcd60e51b815260206004820152601d60248201527f4e6f2068617320656e766961646f20737566696369656e746520455448000000604482015260640161061b565b600854600c54106108ae5760405162461bcd60e51b815260206004820152601260248201527113585e081cdd5c1c1b1e481c995858da195960721b604482015260640161061b565b6108bc600c80546001019055565b60006108c7600c5490565b90506108d33382610e53565b50565b6000818152600260205260408120546001600160a01b0316806104e85760405162461bcd60e51b8152602060048201526018602482015277115490cdcc8c4e881a5b9d985b1a59081d1bdad95b88125160421b604482015260640161061b565b6009805461094390611d52565b80601f016020809104026020016040519081016040528092919081815260200182805461096f90611d52565b80156109bc5780601f10610991576101008083540402835291602001916109bc565b820191906000526020600020905b81548152906001019060200180831161099f57829003601f168201915b505050505081565b60006001600160a01b038216610a2e5760405162461bcd60e51b815260206004820152602960248201527f4552433732313a2061646472657373207a65726f206973206e6f7420612076616044820152683634b21037bbb732b960b91b606482015260840161061b565b506001600160a01b031660009081526003602052604090205490565b610a52610dad565b6107ef60006110c9565b610a64610dad565b33610a6e826108d6565b6001600160a01b03161480610a93575033610a8882610580565b6001600160a01b0316145b610ad05760405162461bcd60e51b815260206004820152600e60248201526d139bdd08185d5d1a1bdc9a5e995960921b604482015260640161061b565b6000908152600a60205260409020805460ff19166001179055565b610af3610dad565b6107ef611123565b6060600180546104fd90611d52565b610777338383611160565b610b1d610e0d565b6000828152600a602052604090205460ff1615610b6e5760405162461bcd60e51b815260206004820152600f60248201526e151bdad95b881a5cc81b1bd8dad959608a1b604482015260640161061b565b610b7a8484848461122e565b50505050565b60606104e882611260565b610b93610dad565b33610b9d826108d6565b6001600160a01b03161480610bc2575033610bb782610580565b6001600160a01b0316145b610bff5760405162461bcd60e51b815260206004820152600e60248201526d139bdd08185d5d1a1bdc9a5e995960921b604482015260640161061b565b6000908152600a60205260409020805460ff19169055565b6001600160a01b03918216600090815260056020908152604080832093909416825291909152205460ff1690565b610c4d610dad565b6001600160a01b038116610cb25760405162461bcd60e51b815260206004820152602660248201527f4f776e61626c653a206e6577206f776e657220697320746865207a65726f206160448201526564647265737360d01b606482015260840161061b565b6108d3816110c9565b60006001600160e01b03198216632483248360e11b14806104e857506104e882611370565b6000818152600260205260409020546001600160a01b03166108d35760405162461bcd60e51b8152602060048201526018602482015277115490cdcc8c4e881a5b9d985b1a59081d1bdad95b88125160421b604482015260640161061b565b600081815260046020526040902080546001600160a01b0319166001600160a01b0384169081179091558190610d74826108d6565b6001600160a01b03167f8c5be1e5ebec7d5bd14f71427d1e84f3dd0314c0f7b2291e5b200ac8c7c3b92560405160405180910390a45050565b6007546001600160a01b036101009091041633146107ef5760405162461bcd60e51b815260206004820181905260248201527f4f776e61626c653a2063616c6c6572206973206e6f7420746865206f776e6572604482015260640161061b565b60075460ff16156107ef5760405162461bcd60e51b815260206004820152601060248201526f14185d5cd8589b194e881c185d5cd95960821b604482015260640161061b565b6107778282604051806020016040528060008152506113c0565b606081600003610e945750506040805180820190915260018152600360fc1b602082015290565b8160005b8115610ebe5780610ea881611e28565b9150610eb79050600a83611e57565b9150610e98565b60008167ffffffffffffffff811115610ed957610ed9611c25565b6040519080825280601f01601f191660200182016040528015610f03576020820181803683370190505b508593509050815b8315610f7257610f1c600182611e6b565b9050610f29600a85611e7e565b610f34906030611e92565b60f81b828281518110610f4957610f49611ea5565b60200101906001600160f81b031916908160001a905350610f6b600a85611e57565b9350610f0b565b50949350505050565b6000828152600260205260409020546001600160a01b0316610ff65760405162461bcd60e51b815260206004820152602e60248201527f45524337323155524953746f726167653a2055524920736574206f66206e6f6e60448201526d32bc34b9ba32b73a103a37b5b2b760911b606482015260840161061b565b600082815260066020526040902061100e8282611f09565b506040518281527ff8e1a15aba9398e019f0b49df1a4fde98ee17ae345cb5f6b5e2c27f5033e8ce79060200160405180910390a15050565b61105033826113f3565b61106c5760405162461bcd60e51b815260040161061b90611fc8565b6106bc838383611451565b61107f6115b5565b6007805460ff191690557f5db9ee0a495bf2e6ff9c91a7834c1ba4fdd244a5e8aa4e537bd38aeae4b073aa335b6040516001600160a01b03909116815260200160405180910390a1565b600780546001600160a01b03838116610100818102610100600160a81b031985161790945560405193909204169182907f8be0079c531659141344cd1fd0a4f28419497f9722a3daafe3b4186f6b6457e090600090a35050565b61112b610e0d565b6007805460ff191660011790557f62e78cea01bee320cd4e420270b5ea74000d11b0c9f74754ebdbfc544b05a2586110ac3390565b816001600160a01b0316836001600160a01b0316036111c15760405162461bcd60e51b815260206004820152601960248201527f4552433732313a20617070726f766520746f2063616c6c657200000000000000604482015260640161061b565b6001600160a01b03838116600081815260056020908152604080832094871680845294825291829020805460ff191686151590811790915591519182527f17307eab39ab6107e8899845ad3d59bd9653f200f220920489ca2b5937696c31910160405180910390a3505050565b61123833836113f3565b6112545760405162461bcd60e51b815260040161061b90611fc8565b610b7a848484846115fe565b606061126b82610ce0565b6000828152600660205260408120805461128490611d52565b80601f01602080910402602001604051908101604052809291908181526020018280546112b090611d52565b80156112fd5780601f106112d2576101008083540402835291602001916112fd565b820191906000526020600020905b8154815290600101906020018083116112e057829003601f168201915b50505050509050600061131b60408051602081019091526000815290565b9050805160000361132d575092915050565b81511561135f578082604051602001611347929190612015565b60405160208183030381529060405292505050919050565b61136884611631565b949350505050565b60006001600160e01b031982166380ac58cd60e01b14806113a157506001600160e01b03198216635b5e139f60e01b145b806104e857506301ffc9a760e01b6001600160e01b03198316146104e8565b6113ca83836116a5565b6113d76000848484611830565b6106bc5760405162461bcd60e51b815260040161061b9061203b565b6000806113ff836108d6565b9050806001600160a01b0316846001600160a01b0316148061142657506114268185610c17565b806113685750836001600160a01b031661143f84610580565b6001600160a01b031614949350505050565b826001600160a01b0316611464826108d6565b6001600160a01b03161461148a5760405162461bcd60e51b815260040161061b9061208d565b6001600160a01b0382166114ec5760405162461bcd60e51b8152602060048201526024808201527f4552433732313a207472616e7366657220746f20746865207a65726f206164646044820152637265737360e01b606482015260840161061b565b826001600160a01b03166114ff826108d6565b6001600160a01b0316146115255760405162461bcd60e51b815260040161061b9061208d565b600081815260046020908152604080832080546001600160a01b03199081169091556001600160a01b0387811680865260038552838620805460001901905590871680865283862080546001019055868652600290945282852080549092168417909155905184937fddf252ad1be2c89b69c2b068fc378daa952ba7f163c4a11628f55a4df523b3ef91a4505050565b60075460ff166107ef5760405162461bcd60e51b815260206004820152601460248201527314185d5cd8589b194e881b9bdd081c185d5cd95960621b604482015260640161061b565b611609848484611451565b61161584848484611830565b610b7a5760405162461bcd60e51b815260040161061b9061203b565b606061163c82610ce0565b600061165360408051602081019091526000815290565b90506000815111611673576040518060200160405280600081525061169e565b8061167d84611931565b60405160200161168e929190612015565b6040516020818303038152906040525b9392505050565b6001600160a01b0382166116fb5760405162461bcd60e51b815260206004820181905260248201527f4552433732313a206d696e7420746f20746865207a65726f2061646472657373604482015260640161061b565b6000818152600260205260409020546001600160a01b0316156117605760405162461bcd60e51b815260206004820152601c60248201527f4552433732313a20746f6b656e20616c7265616479206d696e74656400000000604482015260640161061b565b6000818152600260205260409020546001600160a01b0316156117c55760405162461bcd60e51b815260206004820152601c60248201527f4552433732313a20746f6b656e20616c7265616479206d696e74656400000000604482015260640161061b565b6001600160a01b038216600081815260036020908152604080832080546001019055848352600290915280822080546001600160a01b0319168417905551839291907fddf252ad1be2c89b69c2b068fc378daa952ba7f163c4a11628f55a4df523b3ef908290a45050565b60006001600160a01b0384163b1561192657604051630a85bd0160e11b81526001600160a01b0385169063150b7a02906118749033908990889088906004016120d2565b6020604051808303816000875af19250505080156118af575060408051601f3d908101601f191682019092526118ac9181019061210f565b60015b61190c573d8080156118dd576040519150601f19603f3d011682016040523d82523d6000602084013e6118e2565b606091505b5080516000036119045760405162461bcd60e51b815260040161061b9061203b565b805181602001fd5b6001600160e01b031916630a85bd0160e11b149050611368565b506001949350505050565b6060600061193e836119c4565b600101905060008167ffffffffffffffff81111561195e5761195e611c25565b6040519080825280601f01601f191660200182016040528015611988576020820181803683370190505b5090508181016020015b600019016f181899199a1a9b1b9c1cb0b131b232b360811b600a86061a8153600a850494508461199257509392505050565b60008072184f03e93ff9f4daa797ed6e38ed64bf6a1f0160401b8310611a035772184f03e93ff9f4daa797ed6e38ed64bf6a1f0160401b830492506040015b6d04ee2d6d415b85acef81000000008310611a2f576d04ee2d6d415b85acef8100000000830492506020015b662386f26fc100008310611a4d57662386f26fc10000830492506010015b6305f5e1008310611a65576305f5e100830492506008015b6127108310611a7957612710830492506004015b60648310611a8b576064830492506002015b600a83106104e85760010192915050565b6001600160e01b0319811681146108d357600080fd5b600060208284031215611ac457600080fd5b813561169e81611a9c565b60005b83811015611aea578181015183820152602001611ad2565b50506000910152565b60008151808452611b0b816020860160208601611acf565b601f01601f19169290920160200192915050565b60208152600061169e6020830184611af3565b600060208284031215611b4457600080fd5b5035919050565b80356001600160a01b0381168114611b6257600080fd5b919050565b60008060408385031215611b7a57600080fd5b611b8383611b4b565b946020939093013593505050565b600080600060608486031215611ba657600080fd5b611baf84611b4b565b9250611bbd60208501611b4b565b929592945050506040919091013590565b600060208284031215611be057600080fd5b61169e82611b4b565b60008060408385031215611bfc57600080fd5b611c0583611b4b565b915060208301358015158114611c1a57600080fd5b809150509250929050565b634e487b7160e01b600052604160045260246000fd5b60008060008060808587031215611c5157600080fd5b611c5a85611b4b565b9350611c6860208601611b4b565b925060408501359150606085013567ffffffffffffffff811115611c8b57600080fd5b8501601f81018713611c9c57600080fd5b803567ffffffffffffffff811115611cb657611cb6611c25565b604051601f8201601f19908116603f0116810167ffffffffffffffff81118282101715611ce557611ce5611c25565b604052818152828201602001891015611cfd57600080fd5b8160208401602083013760006020838301015280935050505092959194509250565b60008060408385031215611d3257600080fd5b611d3b83611b4b565b9150611d4960208401611b4b565b90509250929050565b600181811c90821680611d6657607f821691505b602082108103611d8657634e487b7160e01b600052602260045260246000fd5b50919050565b6000808454611d9a81611d52565b600182168015611db15760018114611dc657611df6565b60ff1983168652811515820286019350611df6565b87600052602060002060005b83811015611dee57815488820152600190910190602001611dd2565b505081860193505b5050508351611e09818360208801611acf565b01949350505050565b634e487b7160e01b600052601160045260246000fd5b600060018201611e3a57611e3a611e12565b5060010190565b634e487b7160e01b600052601260045260246000fd5b600082611e6657611e66611e41565b500490565b818103818111156104e8576104e8611e12565b600082611e8d57611e8d611e41565b500690565b808201808211156104e8576104e8611e12565b634e487b7160e01b600052603260045260246000fd5b601f8211156106bc57806000526020600020601f840160051c81016020851015611ee25750805b601f840160051c820191505b81811015611f025760008155600101611eee565b5050505050565b815167ffffffffffffffff811115611f2357611f23611c25565b611f3781611f318454611d52565b84611ebb565b6020601f821160018114611f6b5760008315611f535750848201515b600019600385901b1c1916600184901b178455611f02565b600084815260208120601f198516915b82811015611f9b5787850151825560209485019460019092019101611f7b565b5084821015611fb95786840151600019600387901b60f8161c191681555b50505050600190811b01905550565b6020808252602d908201527f4552433732313a2063616c6c6572206973206e6f7420746f6b656e206f776e6560408201526c1c881bdc88185c1c1c9bdd9959609a1b606082015260800190565b60008351612027818460208801611acf565b835190830190611e09818360208801611acf565b60208082526032908201527f4552433732313a207472616e7366657220746f206e6f6e20455243373231526560408201527131b2b4bb32b91034b6b83632b6b2b73a32b960711b606082015260800190565b60208082526025908201527f4552433732313a207472616e736665722066726f6d20696e636f72726563742060408201526437bbb732b960d91b606082015260800190565b6001600160a01b038581168252841660208201526040810183905260806060820181905260009061210590830184611af3565b9695505050505050565b60006020828403121561212157600080fd5b815161169e81611a9c56fea2646970667358221220064b62992660ca2e8c3c514a93b7b6afdcdeaf8e08f1c4f9e45e8c844296986964736f6c634300081c0033",
  "linkReferences": {},
  "deployedLinkReferences": {}
}